:020000040C00EE
:100000000008001001020008B1020008B102000857
:10001000B1020008B1020008B102000800000000AF
:10002000000000000000000000000000B102000815
:10003000B102000800000000B10200081D260008FF
:10004000B1020008B1020008B1020008B1020008C4
:10005000B1020008B1020008B1020008B1020008B4
:10006000B1020008000000000000000000000000D5
:10007000B102000800000000B1020008B10200084F
:10008000B1020008B1020008B1020008B102000884
:10009000B1020008B1020008B1020008B102000874
:1000A000B1020008B1020008B1020008B102000864
:1000B000B1020008B1020008B1020008B102000854
:1000C000B1020008B1020008B1020008B102000844
:1000D000B1020008B1020008B1020008B102000834
:1000E000B1020008B1020008B1020008B102000824
:1000F000B1020008B1020008B1020008B102000814
:10010000B1020008B1020008B1020008B102000803
:10011000B1020008B1020008B1020008B1020008F3
:10012000B102000821A30008B1020008B1020008D2
:10013000B1020008B1020008B1020008B1020008D3
:10014000B1020008B1020008B1020008B1020008C3
:10015000B1020008B1020008B1020008B1020008B3
:10016000000000000000000000000000000000008F
:1001700051A40008E1A30008B1020008B102000880
:10018000B1020008B1020008B1020008B102000883
:10019000B1020008B1020008B1020008B102000873
:1001A000B1020008B1020008B1020008B102000863
:1001B000B1020008B1020008B1020008B102000853
:1001C000B1020008B1020008B1020008B102000843
:1001D000B1020008B1020008B102000800000000EE
:1001E000B1020008B1020008F1300008B1020008B5
:1001F000B102000800000000B10200080000000089
:10020000DFF88CD023488047234C244DAC4209DAD8
:1002100021686268A368043BA2BFC858D050FAE7BF
:100220000C34F3E71E4B1F4CA34208DA19685A68D6
:100230000020043AA4BF8850FBE70833F4E71A48CB
:1002400080471A4880470000D006010C00000020BB
:10025000300200000009010C000000300000000026
:10026000D006010C0008001000000000D006010CB0
:1002700000080010000000003002002048090000C3
:100280000000003000000000000800100000000026
:1002900000080010B50200084802000878020008B3
:1002A00078020008900200082DBF000895B40008ED
:1002B000FEE7000098B500AF054A4FF00053144622
:1002C0000FCB84E80F0009F07BFB09F0E3FB98BD3E
:1002D000C4FF002080B584B000AF2F4BDB6803F46F
:1002E0008033002B3ED02D4BDB6803F00103002B45
:1002F00002D02B4BFB6002E009F0C2FBF860274BF9
:100300001B6803F00403002B20D0244B9B6803F0F0
:1003100070631B0E0133BB60204B9B6803F4FE43EC
:100320001B0A01337B601D4B9B6803F4FE031B0C0F
:1003300001333B60BB683A6802FB03F3FA68B2FB27
:10034000F3F37A6802FB03F3FB600DE0134B9B6849
:1003500003F07F0301333B60FA683B68B2FBF3F3C1
:10036000FB6001E00E4BFB600B4BDB68DBB2013343
:10037000FA68B2FBF3F3FB60074B1B6903F0010360
:100380000133FA68B2FBF3F3FB60064AFB681360C3
:100390001037BD4680BD00BF0046005010470050DA
:1003A00000366E01C0FF002080B485B000AFF86059
:1003B0000B467A60FB72FB7A9B08DBB21846FB7A2D
:1003C0009B08DBB21A46FB68043253F82220FB7A02
:1003D00003F00303DB001946F8238B40DB4302EAFA
:1003E0000301FB68021D43F82210FB685A6FFB7A79
:1003F0005B00194603238B40DB431A40FB685A67B6
:10040000FB683A4A934203D0FB68394A93420AD1C7
:10041000FB681A6EFB7A012101FA03F3DB431A40F1
:10042000FB681A6642E07B681B78DBB25BB2002B8C
:100430003CDA7B685A68FB7A9A40FB685A60FB7A20
:10044000DB08DBB21846FB7ADB08DBB21A46FB6836
:10045000103253F82220FB7A03F007039B00194661
:1004600007238B40DB4302EA0301FB6800F1100223
:1004700043F82210FB7ADB08DBB21846FB7ADB0874
:10048000DBB21A46FB68103253F822207B681B7AD5
:100490001946FB7A03F007039B0001FA03F342EAD3
:1004A0000301FB6800F1100243F82210FB7A9B085D
:1004B000DBB21846FB7A9B08DBB21A46FB680432B3
:1004C00053F822207B681B781946FB7A03F003035C
:1004D000DB0001FA03F342EA0301FB68021D43F863
:1004E00022101437BD465DF8047B7047008E024829
:1004F000008F024880B400AF064B5B6803F0010335
:10050000002B14BF01230023DBB21846BD465DF863
:10051000047B7047004A005080B400AF034BD3F80F
:10052000C4301846BD465DF8047B7047004000505B
:1005300080B582B000AF7860FFF7DCFF034683F040
:100540000103DBB2002B3ED000F0D6FA034683F065
:100550000103DBB2002B01D000F0A2FA7B681B8AFA
:10056000184601F0C5FA00BFFFF7D6FF034603F4B3
:100570000063002BF8D1164A7B681B68136200BF2A
:10058000FFF7CAFF034603F48053002BF8D1104A4B
:100590007B685B68536200BFFFF7BEFF034603F44E
:1005A0000073002BF8D10A4A7B689B68936100BFF7
:1005B000FFF7B2FF034603F48063002BF8D1044A2F
:1005C0007B68DB68D361002318460837BD4680BDD1
:1005D000004A005080B582B000AF786000BFFFF7DE
:1005E0009BFF034603F48043002BF8D10449044BDE
:1005F0001A697B6813430B610837BD4680BD00BF95
:10060000004A005080B400AF034B1B681846BD463B
:100610005DF8047B704700BFC0FF002080B400AFCE
:10062000034BD3F8C4301846BD465DF8047B7047D1
:100630000040005080B584B000AF7860FFF74AFEFC
:100640000B4B1B680B4AA2FB03239A0C7B6802FB33
:1006500003F37B600023FB6003E000BFFB68013312
:10066000FB60FA687B689A42F7D31037BD4680BDBD
:10067000C0FF002083DE1B4380B400AF034B5B68E8
:100680001846BD465DF8047B704700BF74400050BB
:1006900080B483B000AF7860034A7B68D3600C37C6
:1006A000BD465DF8047B704774400050B0B584B01F
:1006B00002AF7860002000F09BF800F0F1F97B6851
:1006C000DB79002B0AD000F047FA00BF00F032FAC5
:1006D000034683F00103DBB2002BF7D17B685B7A22
:1006E000184600F0EBF800BFFFF798FF0346002B19
:1006F000FAD17B681B7A184600F0ACF97B681B7C4A
:10070000184600F0F9F87B685B7C184600F01CF98D
:100710007B689B7C184600F003F97B68DB7C1846FD
:1007200000F026F97B689B79002B0AD000F04CFA88
:1007300000BF00F071FA034683F00103DBB2002B27
:10074000F7D17B68DB78002B02D100F089FA14E046
:1007500000F076FA7B6899887B68DA787B685B784A
:100760001D467B681B781C467B689B780093084677
:1007700011462A46234600F083FA7B68DB68B3F50E
:10078000803F03D14FF4803000F032F8FFF7A2FD34
:100790000837BD46B0BD00BF80B485B000AF7860FB
:1007A0007B681B0FFB607B6823F07043BB60FA68BB
:1007B00013465B0013449B001A46044B1344BA686B
:1007C0001A601437BD465DF8047B7047144400502E
:1007D00080B500AFFFF716FF0246044B5B6903F0DC
:1007E000010322FA03F3184680BD00BF0046005003
:1007F00080B483B000AF78600649064BDB6823F411
:1008000080327B681343CB600C37BD465DF8047BB8
:10081000704700BF0046005080B483B000AF7860DE
:100820000649064B9B6923F480327B6813438B6136
:100830000C37BD465DF8047B704700BF0046005092
:1008400080B483B000AF0346FB80FB88002B08D147
:100850000A4A0A4BDB6823F4807323F00103D36058
:1008600007E0064A054BDB6843F4807343F001035D
:10087000D3600C37BD465DF8047B704710470050CD
:1008800080B483B000AF0346FB7100BF094BD3F8BF
:10089000C43003F00803002BF8D10749064BDB688E
:1008A00023F04002FB791343CB600C37BD465DF863
:1008B000047B7047004000500043005080B483B078
:1008C00000AF0346FB7100BF094BD3F8C43003F0FF
:1008D0000803002BF8D10749064BDB6823F08002A0
:1008E000FB791343CB600C37BD465DF8047B704742
:1008F000004000500043005080B483B000AF7860E7
:100900000649064BDB6823F0FF027B68013B13437B
:10091000CB600C37BD465DF8047B70470046005045
:1009200080B483B000AF78600649064B1B6A23F0A1
:1009300001027B68013B13430B620C37BD465DF837
:10094000047B70470046005080B483B000AF7860ED
:100950000649064B1B6923F001027B68013B1343E8
:100960000B610C37BD465DF8047B704700460050B4
:1009700080B483B000AF78600649064B5B6923F012
:1009800001027B68013B13434B610C37BD465DF8A8
:10099000047B70470046005080B483B000AF78609D
:1009A0000649064B9B6923F007027B68013B134312
:1009B0008B610C37BD465DF8047B704700460050E4
:1009C00080B483B000AF0346FB71044AFB795360E7
:1009D0000C37BD465DF8047B704700BF00460050F1
:1009E00080B483B000AF78603960194A184B5B69F6
:1009F00043F001035361164A154B5B6943F0100342
:100A0000536113493B68013B1A027B68013B1B069B
:100A100013434B610E4A0E4B5B6943F04003536135
:100A20000B4A0B4B5B6923F010035361084A084BD8
:100A30005B6943F48023536100BF054B1B6903F0DE
:100A40000403002BF9D00C37BD465DF8047B7047DA
:100A50001047005080B582B000AF0346FB710F4ACB
:100A60000E4B5B6843F480135360FB79012B0ED16E
:100A70000A4A0A4B5B6823F4801353606420FFF733
:100A8000D9FD064A054B5B6843F40023536064209C
:100A9000FFF7D0FD0837BD4680BD00BF10470050AE
:100AA00080B400AF124B1B6803F00103002B09D187
:100AB0000F4B01225A6000BF0D4B1B6803F001036E
:100AC000002BF9D00B4B1B6803F40073002B0AD0EA
:100AD000084B4FF400729A6000BF064B1B6803F48A
:100AE0000073002BF9D1BD465DF8047B704700BF51
:100AF000004200500044005080B400AF0B4B1B6814
:100B000003F00103002B07D0094B1B6803F40073AB
:100B1000002B01D1012300E0002303F00103DBB22D
:100B20001846BD465DF8047B704700BF0042005088
:100B30000044005080B400AF064B1B6803F008036C
:100B4000002B0CBF01230023DBB21846BD465DF825
:100B5000047B70470043005080B500AF4FF40000A5
:100B6000FFF796FD174A174BDB6923F03003D3617B
:100B700000BFFFF781FD034603F40003002BF8D00C
:100B80004FF40030FFF784FD0E4B08225A6000BF7F
:100B9000FFF772FD034603F40033002BF8D04FF447
:100BA0000020FFF775FD074A064BDB6843F008039A
:100BB000D36000BFFFF760FD034603F40023002B62
:100BC000F8D080BD00430050B0B500AF0F4A0F4BC6
:100BD0005B6823F4803353600D4D0D4B5B6823F449
:100BE000702424F0300408F04BFF0246094BA3FBAD
:100BF00002231B0D013B1B0423436B60034A034B81
:100C00005B6823F400335360B0BD00BF1047005051
:100C1000004700506BCA5F6B80B400AF074B1B6886
:100C200003F46073B3F5607F0CBF01230023DBB2D4
:100C30001846BD465DF8047B704700BF1047005062
:100C400080B400AF054A054B5B6823F4803323F082
:100C500002035360BD465DF8047B704710470050A7
:100C600080B400AF054A054B5B6843F4803343F022
:100C700002035360BD465DF8047B70471047005087
:100C800080B586B000AFBA607B600346FB810B463F
:100C90007B73FB891846FFF7D3FD7B7B012B40F06C
:100CA0008480FB89002B09D108F0EAFE02464B4BF9
:100CB000A3FB02239B0C9B057B6102E04FF0C0630A
:100CC0007B617B697A6802FB03F2BB68B2FBF3F3DA
:100CD0007B617B69424AA2FB03231B099B0D3B619D
:100CE000404A404B5B6843F0010353603D4A3D4B33
:100CF0005B6843F0100353603A493A4B9A683A4BA9
:100D000013407A68013A12021A433B69013B1B0403
:100D10001A43BB68013B1B0613438B60314A314BBE
:100D20005B6843F0400353602E4A2E4B5B6823F010
:100D3000100353602B4A2B4B5B6843F480235360B2
:100D400000BF284B1B6803F00403002BF9D0254A91
:100D5000244B5B6823F00103536000BF214B1B68E9
:100D600003F00103002BF9D17B69204AA2FB032386
:100D70005B099B0D3B613A6A3B699A4202D2386932
:100D800000F038F87B695B08194AA2FB03235B0972
:100D90009B0D3B613A6A3B699A4202D2386900F086
:100DA00029F8386A00F026F815E00E490D4B9B68CB
:100DB00023F07F023B6A013B13438B60094A094BD6
:100DC0005B6843F00103536000BF064B1B6803F0F0
:100DD0000103002BF9D01837BD4680BD83DE1B43CD
:100DE000ABAAAAAA10470050FF8080F089888888A3
:100DF000B7600BB680B582B000AF78600749074B8B
:100E00009B6823F4FE027B68013B1B0413438B6049
:100E10003220FFF70FFC0837BD4680BD1047005059
:100E200080B483B000AF78607B68D3F8C43103F43A
:100E30004073002B0CBF01230023DBB218460C3794
:100E4000BD465DF8047B704780B483B000AF786026
:100E5000084611461A460346FB700B46BB70134604
:100E60007B70FA78BB781B0403F47F031A437B780A
:100E70001B061A437B68C3F8C4210C37BD465DF8D6
:100E8000047B704780B483B000AF78607B681B68D8
:100E900043F040027B681A600C37BD465DF8047B66
:100EA000704700BF80B483B000AF78607B681B6878
:100EB00023F040027B681A600C37BD465DF8047B66
:100EC000704700BF80B483B000AF786039603A6883
:100ED0007B68934238BF134618460C37BD465DF811
:100EE000047B704780B483B000AF786039603A68A3
:100EF0007B68934228BF134618460C37BD465DF801
:100F0000047B704780B588B000AF786039603B687B
:100F10001B683A685268B3FBF2F102FB01F29B1ABC
:100F2000002B40F08B800023BB613B681A683B6854
:100F30005B68B2FBF3F3BB6019237B6100233B6169
:100F40000023FB6048E0BB687A69B3FBF2F2796981
:100F500001FB02F29B1A002B3BD10023BB61BA6854
:100F60007B69B2FBF3F3FB61FB69002B31D0FB69BA
:100F7000B3F5007F2DD8FB693F2B07D9FB6903F040
:100F80000703002B00D027E00123BB617B69013BF5
:100F90003A68128902FB03F32B4AA2FB03235B0B83
:100FA0003B617A693B69D31A013BFB603B69022BC9
:100FB0000FD93B690F2B0CD8FB68012B09D9FB68B3
:100FC000062B06D83B685B891A46FB689A4200D814
:100FD00005E07B69013B7B617B69072BB3D87B69AB
:100FE000072B2BD97868FFF74DFFFB68013B1B03EC
:100FF00003F4E0423B685B89013B9B01DBB21A438F
:101000003B69013B1B0203F4706342EA0301BA69C6
:1010100013465B0013441A46FB69D340013B03F0BF
:101020003F0341EA0302BB69DB039BB21A437B68BF
:101030001A617868FFF736FF002300E001231846A5
:101040002037BD4680BD00BF5917B7D180B582B0EB
:1010500000AF78600B46FB701346BB7000BF78682A
:10106000FFF7DEFE034683F00103DBB2002BF6D16F
:10107000FB780133DBB2BA7878680221FFF7E4FE2F
:101080000837BD4680BD00BF80B582B000AF786034
:101090000948FFF781FB7B681B6823F001027B682E
:1010A0001A6000BF7B681B6803F00203002BF9D1B4
:1010B0000837BD4680BD00BF1000001080B483B06B
:1010C00000AF78600B46FB700C37BD465DF8047BC3
:1010D000704700BF80B584B000AF7860FFF778FB41
:1010E000F860FB6818461037BD4680BD80B588B0F3
:1010F00000AFF8600B467A60FB72F868FFF7C4FF38
:10110000FB7AF8681946FFF7D9FFF868FFF7E2FFA6
:10111000F861FA697B68B2FBF3F3C3F580630020E2
:101120001946FFF7CFFE0346184640F2FF31FFF79E
:10113000D9FEB861BB69C3F58063FA69B2FBF3F30A
:101140007B61FB68DB6823F4434323F0FF03FA6809
:10115000D360FB68DA68BB69134343F48042FB68E1
:10116000DA607B6918462037BD4680BD80B586B001
:1011700000AF78607B681B6803F13843A3F5A833A0
:101180005B097B617B695B095A037B6903F01F0381
:101190001B0213433B617B681B687A681268926884
:1011A00022F47F429A607B681B687A6812689168B3
:1011B0003A690A439A607B68DB7903F02003DBB26B
:1011C000002B07D07B68DB7903F02003DBB2002B18
:1011D00000D160E07B681B7E002B04D07B681B7E07
:1011E000012B00D057E07B681B682022DA617B6806
:1011F000DB7903F02003DBB2002B28D17B685B682E
:10120000FB60FB6803F06043FB607B685B68C3F3D3
:101210001C039B041A46FB681343FB607B681B6836
:10122000FA689A617B689B68FB60FB6803F0604327
:10123000FB607B689B68C3F31C039B041A46FB6836
:101240001343FB607B681B68FA68DA6009E07B681F
:101250001B687A6852689A617B681B687A68926832
:10126000DA607B681B7E012B0CD1786800F01AF8DD
:101270007B681B684FF00062DA617B681B68074A75
:10128000DA6108E07B681B684FF40062DA617B6812
:101290001B68034ADA611837BD4680BDC0002006CE
:1012A0004006A00080B485B000AF78600323FB73D4
:1012B0007B681B7E012B22D17B681B682022DA61B0
:1012C0007B681B687A681268126822F070617A681D
:1012D000127B120602F070620A431A607B681B6878
:1012E0007A6812691A617B681B687A6852695A6168
:1012F0007B681B68064ADA610023FB7301E0032365
:10130000FB73FB7B18461437BD465DF8047B7047C2
:101310004000280080B487B000AF78600123FB75DF
:101320007B681B68DB6903F020035B093B617B681A
:101330001B68DB6903F480731B0AFB603B69002BAD
:1013400002D10423FB750CE0FB68012B02D10223C0
:10135000FB7506E07B681B684FF0E062DA610023F2
:10136000FB75FB7D18461C37BD465DF8047B704756
:1013700080B487B000AF78600123FB750023BB7594
:1013800000237B757B681B68DB6903F40063DB0A61
:101390003B617B681B68DB6903F004039B08FB600F
:1013A0003B69002B02D00323FB75A7E0FB68012BF0
:1013B00002D10223FB75A1E07B681B680822DA6179
:1013C0007B681B689B6903F000535B0F002B40D1C7
:1013D0007A68D3796FF34513D3717B681B689A6978
:1013E0004A4B13409B0C23F060417A68536861F3C9
:1013F0001C0353607B681B68DB6803F000535B0FC2
:10140000DBB203F00103D9B27A68D37A61F34513F2
:10141000D3727B68DB7A03F02003DBB2002B0DD0A4
:101420007B681B68DA68394B13409B0C23F06041E2
:101430007A68936861F31C03936032E07B681B68F1
:10144000DB6823F060417A68936861F31C03936062
:1014500027E07A68D37943F02003D3717B681B6857
:101460009B6923F060417A68536861F31C03536001
:101470007B681B68DB6823F060417A68936861F3DE
:101480001C0393607B681B68DB6803F000535B0FF1
:10149000DBB203F00103D9B27A68D37A61F3451362
:1014A000D3727B681B681B6803F070631B0EDAB293
:1014B0007B681A737B681B681A697B681A617B6892
:1014C0001B685A697B685A617B681B68DB6903F09B
:1014D00004039B08BB757B681B68DB6903F008038A
:1014E000DB087B75BB7D002B03D07B7D002B7FF45D
:1014F00063AF7B6800221A760023FB75FB7D1846DC
:101500001C37BD465DF8047B704700BF0000FC1F20
:1015100080B483B000AF786039603B68B3F5800F6A
:1015200006D07B681A683B681A437B681A6005E03E
:101530007B689A693B681A437B689A610C37BD46A1
:101540005DF8047B704700BF80B483B000AF786063
:101550007B68DB6843F480727B68DA600C37BD46D9
:101560005DF8047B704700BF80B582B000AF786043
:101570007B68104A934203D10420FFF70DF916E06F
:101580007B680D4A934203D10820FFF705F90EE06E
:101590007B680A4A934203D11020FFF7FDF806E06A
:1015A0007B68074A934202D10648FFF7F5F80837EF
:1015B000BD4680BD00C00040000001400040014029
:1015C000004000480100001080B582B000AF786094
:1015D0001020FFF7F5F97868FFF7C6FF0837BD461A
:1015E00080BD00BF80B584B000AF78600B46FB7053
:1015F0007868FFF7E9FF7868FFF7A6FF7B681B684C
:10160000FB60FB6823F44043FB60FB789B03FA68B4
:101610001343FB607B68FA681A601037BD4680BDD3
:1016200080B483B000AF786039603B681A687B682B
:101630005A613B685B79C3F34013DBB21A057B68E0
:101640005A603B681B79C3F30303DBB21A467B681D
:101650005A623B685B79C3F30303DBB21A467B68CB
:101660001A623B685B79C3F30013DBB21A467B68EE
:101670009A613B681B79C3F30313DBB21A467B689C
:10168000DA620C37BD465DF8047B704780B487B0E2
:1016900000AF78600B46FB701346BB707B68D3F8D5
:1016A000A830FB60FB78092B2CD801A252F823F05C
:1016B000D9160008D9160008E3160008E31600083A
:1016C000051700080517000805170008051700088A
:1016D000ED160008F916000803233B6100237B6127
:1016E00016E00C233B6102237B6111E04FF4407351
:1016F0003B6108237B610BE04FF440633B610A23AD
:101700007B6105E04FF440533B610C237B6100BFDC
:101710003B69DB43FA681340FB60BA787B6902FAE5
:1017200003F3FA681343FB607B68FA68C3F8A820E8
:101730001C37BD465DF8047B704700BF80B483B0A2
:1017400000AF78600B46FB701346BB70FB789B08BC
:10175000DBB21846FB789B08DBB21A467B68043282
:1017600053F82220FB7803F00303DB001946F8232B
:101770008B40DB4302EA03017B68021D43F8221021
:10178000FB789B08DBB21846FB789B08DBB21A4655
:101790007B68043253F82220BB78F97801F003010A
:1017A000C9008B4042EA03017B68021D43F8221006
:1017B0000C37BD465DF8047B704700BF80B483B032
:1017C00000AF78600B46FB701346BB707B685A6FA6
:1017D000FB785B00194603238B40DB431A407B6890
:1017E0005A677B685A6FBB78F97849008B401A4377
:1017F0007B685A670C37BD465DF8047B704700BFB5
:1018000080B483B000AF78607B689B6BDBB223F061
:101810007F03DBB218460C37BD465DF8047B70478A
:1018200080B483B000AF786039607B68DA6C3B6865
:101830001A437B68DA640C37BD465DF8047B704759
:1018400080B582B000AF78603960786800F09EFAA9
:101850007B680E4A5A633B689B887868194600F09B
:1018600017F83B681B687868194600F031F87B6808
:101870004FF4A0629A637B684FF0FF32DA647B68B2
:1018800000221A640837BD4680BD00BF03033F072E
:1018900080B483B000AF78600B467B807B8803F414
:1018A000F843B3F5F04F09D17B88DAB27B885B004F
:1018B00003F47E431A437B68DA6303E07B881A02F1
:1018C0007B68DA630C37BD465DF8047B704700BF68
:1018D00080B584B000AF786039600123FB733B684A
:1018E000174A934210D87B68DB6B23F400327B6885
:1018F000DA63786839680A2200F094FA0346002B0C
:1019000019D10023FB7316E03B680E4A934210D8AE
:101910007B68DB6B43F400327B68DA637868396894
:10192000192200F07FFA0346002B04D10023FB7339
:1019300001E00123FB73FB7B18461037BD4680BDD9
:10194000A0860100801A060080B584B000AF7860E0
:101950000B467B8013467B707B8843F480639BB28D
:10196000FB607B78012B03D1FB6843F00103FB6034
:101970007B68D3F8083103F0E063002B10D100BF7F
:101980007868FFF73DFF0346802BF9D078684FF465
:101990000051FFF745FF7B68FA68C3F8802003E039
:1019A0007B68FA68C3F880211037BD4680BD00BF50
:1019B00080B584B000AF78600B467B8013467B70A7
:1019C0007B8843F4A0639BB2FB607B78012B03D13F
:1019D000FB6843F00103FB607B68D3F8083103F038
:1019E000E063002B10D100BF7868FFF709FF0346C2
:1019F000802BF9D078684FF40051FFF711FF7B6816
:101A0000FA68C3F8802003E07B68FA68C3F8802195
:101A10001037BD4680BD00BF80B582B000AF786092
:101A20007B68D3F8083103F0E063002B11D100BFCD
:101A30007868FFF7E5FE0346802BF9D078684FF40D
:101A40000051FFF7EDFE7B684FF4C062C3F88020C1
:101A500004E07B684FF4C062C3F880210837BD46BC
:101A600080BD00BF80B582B000AF78600B46FB70D0
:101A70007B68D3F8083103F0E063002B10D100BF7E
:101A80007868FFF7BDFE0346802BF9D078684FF4E5
:101A90000051FFF7C5FEFA787B68C3F8802003E0A9
:101AA000FA787B68C3F880210837BD4680BD00BF47
:101AB00080B400AF034BD3F8C4301846BD465DF880
:101AC000047B70470040005080B500AF00BFFFF7B7
:101AD000EFFF034603F48073002BF8D1034A034B56
:101AE0005B6843F00103536080BD00BF004A0050B3
:101AF00080B582B000AF0346FB8000BFFFF7D8FF80
:101B0000034603F48073002BF8D10549044B5B684E
:101B10009AB2FB881B0413434B600837BD4680BD57
:101B2000004A005080B582B000AF786000BFFFF778
:101B3000BFFF034603F40063002BF8D1094A7B681A
:101B40001B68136200BFFFF7B3FF034603F4805323
:101B5000002BF8D1034A7B685B6853620837BD46A7
:101B600080BD00BF004A005080B483B000AF7860F1
:101B7000064B1A6A7B681A60044B5A6A7B685A6083
:101B80000C37BD465DF8047B704700BF004A00502B
:101B900080B582B000AF78600248FEF7FDFD0837DF
:101BA000BD4680BD4000001080B483B000AF7860B7
:101BB00039607B689B8E9AB23B689BB213439AB2A2
:101BC0007B689A867B68DB8E9AB23B681B0C9BB263
:101BD00013439AB27B68DA860C37BD465DF8047B06
:101BE000704700BF80B582B000AF78603960786818
:101BF0003968FFF7D9FF7B681B8F9AB23B689BB2AD
:101C000013439AB27B681A877B685B8F9AB23B68F2
:101C10001B0C9BB213439AB27B685A870837BD46A8
:101C200080BD00BF80B483B000AF786039607B684E
:101C30001B8F9AB23B689BB2DB439BB213409AB2B4
:101C40007B681A877B685B8F9AB23B681B0C9BB2E0
:101C5000DB439BB213409AB27B685A870C37BD4670
:101C60005DF8047B704700BF80B483B000AF78603C
:101C700039603B689AB27B681A863B681B0C9AB243
:101C80007B685A860C37BD465DF8047B704700BF01
:101C900080B485B000AF786039603B68B3F5803FB1
:101CA0000CD27B681B8E9AB23B689BB213409BB2EE
:101CB000002B14BF01230023FB730CE07B685B8EB9
:101CC0009AB23B681B0C9BB213409BB2002B14BF13
:101CD00001230023FB73FB7B18461437BD465DF8D8
:101CE000047B704780B485B000AFF860B9607A605B
:101CF000FB687A689A60BB681A88FB68DA810023FF
:101D000018461437BD465DF8047B704780B483B035
:101D100000AF786039603B681B689AB27B689A8034
:101D20003B685B689AB27B68DA807B689B899BB270
:101D30009BB223F020039AB23B681B7A9BB21343F9
:101D40009BB29AB27B689A813B681B7A002B07D1C1
:101D50007B689B899BB223F002039AB27B689A81CD
:101D60007B689B899BB29BB223F00C039AB23B68C1
:101D70005B7A9B009BB213439BB29AB27B689A81B9
:101D80000C37BD465DF8047B704700BF80B582B05C
:101D900000AF78607B681A4A934203D07B68194A87
:101DA000934203D1184800F0ADF816E07B68174A5B
:101DB000934203D07B68164A934203D1154800F042
:101DC000A1F80AE07B68144A934203D07B68134A67
:101DD000934202D1124800F095F87B680322DA6042
:101DE00000BF7B68DB6803F00103002BF9D07B6840
:101DF0001B6C23F00F027B681A640837BD4680BD58
:101E000000000340000203400800034000000248B5
:101E1000000202480800024800400248004202480E
:101E20000840024880B58EB000AFF860B9607A60B3
:101E3000BB68632B58D97B68002B55D0FEF7C8FCD4
:101E400002462E4BA3FB02235B093B62BB682B4A75
:101E5000A2FB03235B09BB600123FB620123BB627E
:101E600040F2FF337B6240F2FF333B6322E03B6A88
:101E70003A6B02FB03F2BB68796801FB03F3B2FB28
:101E8000F3F3FB61FB699B0ABB61FB69C3F30903C5
:101E90007B61BB69B3F5806F09D27A697B6A9A422C
:101EA00005D27B697B62BB69BB623B6BFB623B6BB0
:101EB000013B3B633B6B002BD9D1FB6A43F40042EF
:101EC000FB681A61FB685A690D4B13407A68013A46
:101ED00092021A43BB6A013B1B041A43FB685A6116
:101EE000002387F8373002E0012387F8373097F86E
:101EF000373018463837BD4680BD00BF1F85EB51CF
:101F0000EF8000FC80B582B000AF78607B680D4A3E
:101F1000934204D14FF40060FEF73EFC0EE07B6874
:101F2000094A934203D10948FEF736FC06E07B6874
:101F3000074A934202D10748FEF72EFC0837BD46F8
:101F400080BD00BF08000340080002488000001068
:101F5000084002480001001080B584B000AF7860EE
:101F6000144B1B68002B02D1124B134A1A60114B01
:101F70001B68FB607B68033323F003037B600D4B1E
:101F80001A687B6813440D4A934207D2094B1A68BA
:101F90007B681344074A1360FB6806E009F0C0FF42
:101FA00002460C2313604FF0FF3318461037BD462E
:101FB00080BD00BF30020020780B0020C0FF002051
:101FC00080B400AFBD465DF8047B704780B483B039
:101FD00000AF78600B46FB707B68DA68FB78012104
:101FE00001FA03F31A437B68DA600C37BD465DF8EB
:101FF000047B704780B483B000AF78607B680122B7
:10200000DA600C37BD465DF8047B704780B483B05E
:1020100000AF78607B6802221A610C37BD465DF81C
:10202000047B704780B483B000AF78600B467B8040
:102030007A887B685A630C37BD465DF8047B70472D
:1020400080B483B000AF78600B467B807A887B6871
:10205000DA630C37BD465DF8047B704780B483B00B
:1020600000AF786039607B683A681A610C37BD460A
:102070005DF8047B704700BF80B483B000AF786028
:102080000B46FB707B68D3F8A420FB78012101FA92
:1020900003F31A437B68C3F8A4200C37BD465DF8F0
:1020A000047B704780B584B000AF78600023FB7379
:1020B0007B6893F8263083F00103DBB2002B09D054
:1020C0007B6893F82130002B04D1786800F008F881
:1020D0000346FB73FB7B18461037BD4680BD00BF2F
:1020E00080B584B000AF78607B681B69184604F047
:1020F000F7FA0346FB737B681B699A687B681B7E53
:1021000010461946FFF762FF7B685A697B68DB69F6
:1021100010461946FFF784FA786800F02DF87B68BE
:1021200093F82530002B0FD07B685A697B6893F8B1
:102130002030104600211A46FFF7A8FA7B685B6939
:1021400018460021FFF798FF7B685B691846FFF788
:102150005DFF7B68012283F826207B6893F824309A
:10216000002B04D07B685B691846FFF743FFFB7BBD
:1021700018461037BD4680BD80B582B000AF78608C
:102180007B685A697B685B8C10461946FFF74AFFEB
:102190007B685B6918460021FFF752FF7B681B696B
:1021A0009A687B68DB6810461946FFF757FF0837C7
:1021B000BD4680BD80B400AF044BDB6803F4E06330
:1021C0001B0A1846BD465DF8047B704700ED00E031
:1021D00080B483B000AF03463960FB7197F90730D4
:1021E000002B0ADB0D4997F907303A68D2B292000A
:1021F000D2B20B4483F800230AE00949FB7903F0CB
:102200000F03043B3A68D2B29200D2B20B441A7662
:102210000C37BD465DF8047B704700BF00E100E06D
:1022200000ED00E080B489B000AFF860B9607A607A
:10223000FB6803F00703FB61FB69C3F10703062B8F
:1022400028BF0623BB61FB690633062B02D9FB6955
:10225000013B00E000237B61BB69012202FA03F32A
:102260005A1EBB681A407B699A407B69012101FABA
:1022700003F3591E7B680B40134318462437BD46B1
:102280005DF8047B704700BF80B582B000AF786016
:102290007B68013BB3F1807F01D301230FE00A4A41
:1022A0007B68013B53604FF0FF303F21FFF790FF09
:1022B000054B00229A60044B07221A60002318463F
:1022C0000837BD4680BD00BF10E000E090B486B086
:1022D00000AF78600023FB736B497A681346DB001C
:1022E00013449B000B4418331B68BB60674B1B688F
:1022F000002B09D17A681346DB0013449B00624A25
:102300001344624A1360BBE0604B1B687B61BB688F
:102310003B61ABE07B699B691A463B699B1A3B6159
:102320003B69002B7ADC7B695B68002B26D07B69DC
:1023300059687A681346DB0013449B00524A1344E1
:102340000B607B69596850487A681346DB00134478
:102350009B00034459604C497A681346DB001344E0
:102360009B000B447A691A607A681346DB001344B9
:102370009B00454A1A447B695A601CE0434B19682C
:1023800041487A681346DB0013449B0003441960FC
:102390003E4B19687A681346DB0013449B003A4AA7
:1023A00013444B607A681346DB0013449B00364AA3
:1023B0001344364A136034497A681346DB001344E9
:1023C0009B000B441B689A693B69D1182E487A68B8
:1023D0001346DB0013449B000344183319602A4959
:1023E0007A681346DB0013449B000B4419682648A7
:1023F0007A681346DB0013449B0003441B6898690A
:10240000214C7A681346DB0013449B0023441833A5
:102410001B68C31A8B610123FB7324E03B69002B0B
:1024200021DD7B691B68002B1DD117497A68134693
:10243000DB0013449B000B447A695A607A681346A8
:10244000DB0013449B00104A1A447B691A60396907
:102450000D487A681346DB0013449B00034418338D
:1024600019600123FB737B691B687B617B69002B0F
:1024700006D0FB7B83F00103DBB2002B7FF44AAF75
:102480001837BD4690BC7047A804002034020020D5
:1024900080B485B000AF78607A681346DB001344DF
:1024A0009B00294A1344FB60FB685B68002B07D143
:1024B000FB681B68002B03D1244B00221A603DE00F
:1024C000FB685B68002B14D1FB681B681F4A136014
:1024D0001E4B1B6800225A601C4B1B681B4A12686B
:1024E0009169FA6892690A449A61FB6800221A604D
:1024F00024E0FB681B68002B07D1FB685B680022A7
:102500001A60FB6800225A6018E0FB685B68FA6892
:1025100012681A60FB681B68FA6852685A60FB68A8
:102520001B68FA6812689169FA6892690A449A61AC
:10253000FB6800221A60FB6800225A601437BD460F
:102540005DF8047B704700BFA8040020340200201F
:1025500080B582B000AF2F4B1B687B6050E07B687A
:1025600093F82030002B13D07B685B691846FFF787
:102570008FFF7B6800225A737B685B691A460123D0
:102580009340DA43244B1B681340234A136034E022
:102590007B681B7B002B12D17B685B7B012B2CD1D2
:1025A0007B685B691846FFF773FF7B6802225A73EA
:1025B0007B689B687A681269104698471DE07B68C3
:1025C0001B7B012B18D17B685B7B012B15D17B68B2
:1025D0005B691846FFF75CFF7B68DA697B689A6184
:1025E0007B685B691846FFF771FE7B689B687A68B9
:1025F00012691046984700E009E0064B1B687B60B3
:102600007B68002B03D07B689B69002BA7D0083721
:10261000BD4680BD340200203802002080B582B063
:1026200000AF0E4B1B687B600D4B1B6801330C4ADF
:1026300013607B68002B0ED07B689B69012B05D94A
:102640007B689B695A1E7B689A6104E07B68002264
:102650009A61FFF77DFF0837BD4680BD3402002038
:102660003C02002080B584B000AF78600023FB738B
:102670007B681B7883F00103DBB2002B20D0134B67
:1026800000221A601248FFF7FFFD0346FB73FB7B35
:10269000012B15D0FFF78EFD0346184601210022BD
:1026A000FFF7C0FD03464FF0FF301946FFF790FDDE
:1026B000084B00221A607B6801221A700023FB730A
:1026C000FB7B18461037BD4680BD00BF340200209A
:1026D000C0D401003802002080B489B000AFF86097
:1026E0007A603B600B46FB720023FB610023BB61F9
:1026F00000237B61FB68B3F57A7F02D20023FB6184
:102700007BE00023BB6175E0BB6901229A403E4B30
:102710001B681340002B6AD1BB6901229A403A4BD7
:102720001B681343384A13603849BA691346DB0003
:1027300013449B000B441033BA695A603349BA6999
:102740001346DB0013449B000B440833FA7A1A71DA
:102750002E49BA691346DB0013449B000B4408332F
:1027600002225A71FB682A4AA2FB03239B097B6160
:102770007B69591C2548BA691346DB0013449B004A
:102780000344183319602149BA691346DB00134426
:102790009B000B4418337A695A601C49BA69134686
:1027A000DB0013449B000B4408337A681A60174916
:1027B000BA691346DB0013449B000B4410333A689C
:1027C0001A601249BA691346DB0013449B000B449C
:1027D00000225A600D49BA691346DB0013449B007E
:1027E0000B4400221A60BB690133FB6105E0BB6941
:1027F0000133BB61BB69072B86D9FB6918462437B7
:10280000BD465DF8047B704738020020A804002014
:10281000D34D621080B584B000AF78600123FB73A4
:102820007B685A1E1A491346DB0013449B000B4475
:1028300008335B79022B26D17B685A1E7B68591EB0
:1028400013480B46DB000B449B00034418335B68C2
:10285000591C0F481346DB0013449B0003441833F4
:1028600019607B685A1E0A491346DB0013449B001B
:102870000B44083301225A717B68013B1846FFF76D
:1028800025FD0023FB73FB7B18461037BD4680BD3A
:10289000A804002080B584B000AF78600023FB73EB
:1028A0007B685A1E16491346DB0013449B000B44F9
:1028B00008335B79002B02D10123FB731BE07B689B
:1028C0005A1E0F491346DB0013449B000B44083388
:1028D0005B79012B0FD17B685A1E09491346DB0037
:1028E00013449B000B44083302225A717B68013B5E
:1028F0001846FFF7CDFDFB7B18461037BD4680BD5F
:10290000A804002080B485B000AF78600023FB737A
:102910007B685A1E20491346DB0013449B000B447E
:1029200008335B79002B02D10123FB732DE07B6818
:102930005A1E19491346DB0013449B000B4408330D
:102940005B79022B16D17B685A1E13491346DB00B4
:1029500013449B000B44083300225A717B68013BEF
:102960001A4601239340DA430C4B1B6813400B4A71
:1029700013600AE07B685A1E07491346DB001344C4
:102980009B000B44203301221A70FB7B184614373E
:10299000BD465DF8047B7047A80400203802002083
:1029A00080B584B000AF78600023FB730023BB7355
:1029B0007B685B7B002B02D00023FB731BE07B68F2
:1029C0005B68002B02D07B685B6898477B681B7B49
:1029D000002B04D1786803F0C9F90346BB73BB7BB5
:1029E000002B05D00123FB737B6800225A7302E0A1
:1029F0007B6801225A73FB7B18461037BD4680BDA9
:102A000080B584B000AF78600023FB730123BB73F3
:102A10007B681B7B002B04D1786802F0C1FA034667
:102A2000FB73FB7B002B01D10023BB73BB7B1846E0
:102A30001037BD4680BD00BF80B586B000AFF860DE
:102A4000B9607A60FB700023FB75FB681B7B002B71
:102A500007D1FB78F868B9687A6803F0A5F90346EE
:102A6000FB75FB7D18461837BD4680BD80B586B026
:102A700000AFF860B9607A60FB700023FB75FB68FB
:102A80001B7B002B07D1FB78F868B9687A6803F0E4
:102A9000DFF90346FB75FB7D18461837BD4680BD40
:102AA00080B584B000AF78600023FB737B681B7B2C
:102AB000002B04D1786802F029FF0346FB73FB7BEF
:102AC00018461037BD4680BD90B591B000AFF86094
:102AD0000B467A60FB72002387F83F30002387F8AB
:102AE0003E30012387F83D3007F1100300221A60C1
:102AF000043300221A60043300221A6004330022D7
:102B00001A60043300221A60043300221A6004336E
:102B100000221A60043300221A60043300221A8053
:102B20000233FB681B7A03F00103002B1ED1F86807
:102B3000FFF7B6FF034687F83C3097F83C3003F0C8
:102B40000803002B18D0052387F83F30FB7A002BB1
:102B500008D0FB7A0D2B05D0FB7A0E2B02D0FB7A26
:102B6000042B09D1002387F83D3005E0002387F8C6
:102B70003D30032387F83F3097F83D30002B00F0BD
:102B80004082FB7A252B00F2198201A252F823F031
:102B9000292C0008512C0008372C0008932C000821
:102BA0006B2C0008BD2F0008BD2F0008A52F0008C2
:102BB000BD2F0008BD2F0008AD2C0008C72C000851
:102BC000E12C0008FB2C0008152D0008BD2F000883
:102BD000BD2F0008BD2F0008BD2F0008BD2F000825
:102BE000BD2F0008BD2F0008BD2F0008BD2F000815
:102BF000BD2F0008BD2F0008BD2F0008BD2F000805
:102C0000BD2F0008BD2F0008BD2F00082F2D000884
:102C1000872D0008DF2D0008772E0008CF2E000832
:102C2000672F0008812F0008F86800F0F1F90346CB
:102C300087F83F30C6E1FB681B7B002B07D1F868A3
:102C4000796802F079FF034687F83E30BAE1B9E1CE
:102C5000FB681B7B002B07D1F868796802F0FEFE49
:102C6000034687F83E30ADE1ACE17B68BB63FB68AF
:102C70001B7B002B0CD1BB6B1A68BB6B5B68F868C5
:102C800011461A4602F084FC034687F83E3099E16B
:102C900098E1FB681B7B002B07D1F868796802F08C
:102CA0005BFF034687F83E308CE18BE1FB681B7BC2
:102CB000002B07D1F868796802F038FE034687F8E0
:102CC0003E307FE17EE1FB681B7B002B07D1F8687B
:102CD000796802F0AFFE034687F83E3072E171E199
:102CE000FB681B7B002B07D1F868796802F030FE87
:102CF000034687F83E3065E164E1FB681B7B002BEF
:102D000007D1F868796802F083FE034687F83E3001
:102D100058E157E1FB681B7B002B07D1F868796805
:102D200002F072FF034687F83E304BE14AE104238C
:102D30003B747B687B637B6B93F82030102B1DD832
:102D40007B6B93F820307B747A6B7B7C1C4607F19D
:102D50001003023318461146224609F00DF9FB68AC
:102D60001B7B002B0ED107F11003F86819460122D6
:102D700002F002FD034687F83E3023E10A2387F87C
:102D80003E301FE11EE100233B747B687B637B6B5D
:102D900093F82030102B1DD87B6B93F820307B7478
:102DA0007A6B7B7C1C4607F11003023318461146F0
:102DB000224609F0E1F8FB681B7B002B0ED107F1DE
:102DC0001003F8681946002202F0D6FC034687F883
:102DD0003E30F7E00A2387F83E30F3E0F2E00123CB
:102DE0003B747B687B637B6B93F82030102B3DD862
:102DF0007B6B93F82130102B38D87B6B93F8202015
:102E00007B6B93F821301344DBB27B747A6B7B6B62
:102E100093F820301C4607F1100302331846114680
:102E2000224609F0A9F87B6B93F820301A4607F187
:102E300010031344991C7B6B03F110027B6B93F816
:102E40002130084611461A4609F096F8FB681B7BAC
:102E5000002B0AD107F11003F8681946002202F08E
:102E60008BFC034687F83E3004E003E00A2387F832
:102E70003E30A7E0A6E002233B747B687B637B6B5C
:102E800093F82030102B1DD87B6B93F820307B7487
:102E90007A6B7B7C1C4607F11003023318461146FF
:102EA000224609F069F8FB681B7B002B0ED107F165
:102EB0001003F8681946002202F05EFC034687F80A
:102EC0003E307FE00A2387F83E307BE07AE005233E
:102ED0003B747B687B637B6B93F82030102B3DD871
:102EE0007B6B93F82130102B38D87B6B93F8202024
:102EF0007B6B93F821301344DBB27B747A6B7B6B72
:102F000093F820301C4607F110030233184611468F
:102F1000224609F031F87B6B93F820301A4607F10E
:102F200010031344991C7B6B03F110027B6B93F825
:102F30002130084611461A4609F01EF8FB681B7B33
:102F4000002B0AD107F11003F8681946012202F09C
:102F500013FC034687F83E3004E003E00A2387F8B9
:102F60003E302FE02EE0FB681B7B002B07D1F8687A
:102F7000796802F085FC034687F83E3022E021E0C4
:102F800008233B74FB681B7B002B0AD107F110035D
:102F9000F8681946002202F0EFFB034687F83E303E
:102FA00010E00FE0FB681B7B002B06D1F86802F0F5
:102FB00077FE034687F83E3004E003E00A2387F8F3
:102FC0003E3000BF97F83E30002B03D1002387F836
:102FD0003F3016E097F83E300F2B03D1022387F8DD
:102FE0003F300EE097F83E300A2B03D097F83E3082
:102FF000332B03D1042387F83F3002E0012387F805
:103000003F3097F83F3018464437BD4690BD00BF6B
:1030100080B483B000AF7860002318460C37BD46FB
:103020005DF8047B704700BF80B483B000AF786068
:103030000B46FB707B6893F82830DBB223F08002EC
:10304000FB7842EA03017B6893F82830DAB2CBB20E
:103050001343DAB27B6883F828200C37BD465DF84D
:10306000047B704780B483B000AF78600B46FB7080
:103070007B6893F82830DBB223F04002FB7842EA09
:1030800003017B6893F82830DAB2CBB21343DAB28B
:103090007B6883F828200C37BD465DF8047B7047B9
:1030A00080B400AF054A054BD3F89C3043F00103D0
:1030B000C2F89C30BD465DF8047B7047004000506C
:1030C00080B483B000AF0346FB710849074BD3F8C7
:1030D0009C3023F0F003FA7912011343C1F89C30BD
:1030E0000C37BD465DF8047B704700BF00400050C0
:1030F00080B500AF154B1B681B681B8E9AB2144B32
:103100001A80124B1B681B685B8E9AB2114B1A8097
:103110000F4B1B889BB29BB21BB2002B06DA0D4BE8
:103120001B889BB20948194601F0C0FC084B1B885C
:103130009BB2C3F30E03002B06D0054B1B889BB23A
:103140000248194601F046FC80BD00BF90000020F7
:10315000C8050020CA05002098B500AFFFF7A0FF02
:103160000820FFF7ADFF3A4A05233A490C461046BE
:1031700019462246FDF718F935490522354B1B7BC8
:10318000084611461A46FEF719FB314A0623324912
:103190000C46104619462246FDF706F92C49062230
:1031A0002D4B1B7B084611461A46FEF707FB2B4AA0
:1031B00000232B490C46104619462246FDF7F4F829
:1031C00026490022264B1B7B084611461A46FEF76D
:1031D000F5FA244A062324490C461046194622468D
:1031E000FDF7E2F81F4906221F4B1B7B08461146DC
:1031F0001A46FEF7E3FA1B4A07231C490C46104601
:1032000019462246FDF7D0F816490722174B1B7BBB
:10321000084611461A46FEF7D1FA104A012314490E
:103220000C46104619462246FDF7BEF80B4901220E
:103230000F4B1B7B084611461A46FEF7BFFA0D4896
:103240008021FFF7F1FE0B484021FFF70BFF98BDEF
:103250000083024848FC000858FC0008008402482B
:1032600008FC00080081024818FC000828FC00083F
:1032700038FC000800C0014880B400AF044BDB6894
:1032800003F4E0631B0A1846BD465DF8047B7047F3
:1032900000ED00E080B483B000AF0346FB7197F906
:1032A0000730002B0BDB084997F907305B09FA79E7
:1032B00002F01F02012000FA02F241F823200C372D
:1032C000BD465DF8047B704700E100E080B483B048
:1032D00000AF0346FB7197F90730002B0CDB09495F
:1032E00097F907305B09FA7902F01F02012000FA12
:1032F00002F2603341F823200C37BD465DF8047BB1
:10330000704700BF00E100E080B483B000AF034627
:103310003960FB7197F90730002B0ADB0D4997F9EB
:1033200007303A68D2B29200D2B20B4483F800233D
:103330000AE00949FB7903F00F03043B3A68D2B273
:103340009200D2B20B441A760C37BD465DF8047B6E
:10335000704700BF00E100E000ED00E080B489B0FC
:1033600000AFF860B9607A60FB6803F00703FB61A7
:10337000FB69C3F10703062B28BF0623BB61FB696A
:103380000633062B02D9FB69013B00E000237B6179
:10339000BB69012202FA03F35A1EBB681A407B691B
:1033A0009A407B69012101FA03F3591E7B680B40A7
:1033B000134318462437BD465DF8047B704700BFB1
:1033C00080B483B000AF78607B685B8E9BB2002BCB
:1033D00014BF01230023DBB218460C37BD465DF84D
:1033E000047B704780B483B000AF78600B46FB70FD
:1033F0007B689B8F9BB21A46FB781340002B14BF4F
:1034000001230023DBB218460C37BD465DF8047B70
:10341000704700BF80B483B000AF78607B681B6AE0
:1034200018460C37BD465DF8047B704780B483B006
:1034300000AF786039603B681A687B681A620C37A5
:10344000BD465DF8047B704780B483B000AF786000
:103450007B6893F82930DBB243F00103DAB27B6872
:1034600083F829200C37BD465DF8047B704700BF08
:1034700080B483B000AF78607B689B8D9BB243F0D3
:1034800001039AB27B689A850C37BD465DF8047BD0
:10349000704700BF80B483B000AF78607B689B8DBD
:1034A0009BB203F00203002B14BF01230023DBB205
:1034B00018460C37BD465DF8047B704780B483B076
:1034C00000AF78607B689B8D9BB223F001039AB2BA
:1034D0007B689A850C37BD465DF8047B704700BF5A
:1034E00080B483B000AF78607B689B8D9BB243F063
:1034F00004039AB27B689A850C37BD465DF8047B5D
:10350000704700BF80B483B000AF78607B689B8D4C
:103510009BB223F004039AB27B689A850C37BD46B0
:103520005DF8047B704700BF80B483B000AF786063
:1035300039607B6893F82F30DAB23B68DBB2134313
:10354000DAB27B6883F82F200C37BD465DF8047B28
:10355000704700BF80B483B000AF78607B6893F899
:103560002F30DBB218460C37BD465DF8047B704740
:1035700080B483B000AF78607B685B6A03F00103BE
:10358000002B14BF01230023DBB218460C37BD46C5
:103590005DF8047B704700BF80B483B000AF7860F3
:1035A0007B685B6A03F00203002B14BF0123002336
:1035B000DBB218460C37BD465DF8047B704700BF90
:1035C00080B483B000AF78607B685B6A03F47003FB
:1035D0001B0D0F2B0CBF01230023DBB218460C3749
:1035E000BD465DF8047B704780B483B000AF78605F
:1035F0000B46FB707B689B8D9BB2DBB29AB2FB786B
:103600009BB21B029BB213439AB27B689A850C371C
:10361000BD465DF8047B704780B483B000AF78602E
:103620000B46FB707B6893F82930DBB223F00E0366
:10363000DAB2FB785B00DBB21343DAB27B6883F863
:1036400029200C37BD465DF8047B704780B483B0F9
:1036500000AF78600B46FB707B6893F82E30DBB2CE
:1036600023F00F03DAB2FB781343DAB27B6883F8F6
:103670002E200C37BD465DF8047B704780B483B0C4
:1036800000AF78600B46FB707B6893F82830DBB2A4
:1036900023F02203DAB27B6883F828207B6893F852
:1036A0002830DAB2FB781343DAB27B6883F828203B
:1036B0000C37BD465DF8047B704700BF80B483B013
:1036C00000AF78600B46FB707B689B899BB29BB216
:1036D00023F010039AB2FB789BB21B019BB29BB202
:1036E00013439BB29AB27B689A810C37BD465DF852
:1036F000047B704780B483B000AF78607B6893F838
:103700002830DBB243F00403DAB27B6883F8282068
:103710000C37BD465DF8047B704700BF80B483B0B2
:1037200000AF78607B6893F82830DBB223F00403A5
:10373000DAB27B6883F828200C37BD465DF8047B3D
:10374000704700BF80B584B000AF78603960002357
:10375000FB737B681B681B6818463968FFF7E4FE3B
:103760007868174901F084FC7B681B685B6D002B4F
:1037700020D07B681B6893F85C30DBB283F00103D8
:10378000DBB2002B02D02E23FB730AE07B681B68A0
:103790001B681846FFF7DEFE02463B681340002B0D
:1037A000E7D1786801F09EFC7B681B685B6D18466A
:1037B000FFF7A8F8FB7B18461037BD4680BD00BF59
:1037C00020A1070080B582B000AF78607B681B68DD
:1037D000203318460021302208F0D9FB7B680022F4
:1037E0005A727B681B68002283F850207B681B6834
:1037F00001225A767B681B6801221A767B681B6857
:1038000001221A777B681B6801229A767B68002266
:103810001A727B681B681B681846FFF773FE08372F
:10382000BD4680BD80B584B000AF786039601A2392
:10383000FB607868424901F01BFC0346FB607B6833
:103840001B685B6D002B27D07B681B6893F85C308E
:10385000DBB283F00103DBB2002B02D02E23FB602E
:1038600011E07B681B681B681846FFF795FE03464E
:10387000002BE9D17B681B681B681846FFF778FEB0
:103880000346002BE0D1786801F02CFC7B681B68B4
:103890005B6D1846FFF736F87B681B681B68184697
:1038A000FFF766FE034683F00103DBB2002B41D035
:1038B0000023FB603B681B7803F02003DBB2002B86
:1038C0000DD13B685B7803F03F03DBB20D2B06D0D4
:1038D0003B681B7803F00303DBB2032B20D17B682A
:1038E0001B681B681846FFF757FE0346002B02D0E3
:1038F0001B23FB6014E03B681B7803F02003DBB262
:10390000002B06D13B681B7803F00303DBB2032BCB
:1039100006D17B681B7A43F02003DAB27B681A7207
:10392000FB68002B06D17B681B7A43F01003DAB2E8
:103930007B681A72FB6818461037BD4680BD00BF11
:1039400040420F0080B483B000AF786039607B687C
:103950001B68002B02DA3B6801221A707B681B6827
:1039600003F08043002B02D03B6801221A707B6871
:103970001B6803F00053002B02D03B6801221A7031
:103980007B681B6803F08063002B02D03B68012238
:103990001A700C37BD465DF8047B704780B483B065
:1039A00000AF786039607B681B6803F08053002BA0
:1039B00002D03B6801221A707B681B6803F0006329
:1039C000002B02D03B6801221A707B681B6803F44D
:1039D0000043002B02D03B6801221A700C37BD4611
:1039E0005DF8047B704700BF80B483B000AF78609F
:1039F00039607B681B6803F40013002B02D03B681E
:103A000001221A707B681B6803F48013002B02D01C
:103A10003B6801221A707B681B6803F40023002BAB
:103A200002D03B6801221A700C37BD465DF8047B5A
:103A3000704700BF80B584B000AF78600023FB738F
:103A40000023BB7307F10E0378681946FFF77AFF6E
:103A500007F10E0378681946FFF7A0FF07F10E0380
:103A600078681946FFF7C0FF7B681B6803F0807316
:103A7000002B01D00123BB737B681B6803F48033E8
:103A8000002B01D00123BB737B681B6803F0080384
:103A9000002B01D00123BB73BB7B012B01D1012380
:103AA000FB73FB7B18461037BD4680BD80B485B0E4
:103AB00000AFF860B9601346FB80BB6803F0007389
:103AC000002B0AD0FB88032B07D0FB681B7A43F03E
:103AD0000803DAB2FB681A7206E0FB681B7A23F06F
:103AE0000803DAB2FB681A721437BD465DF8047B2E
:103AF000704700BF80B584B000AF786039600023A4
:103B0000FB737B681B68012283F85C207868396846
:103B100001F0AEFA7B681B685B6D002B01D131238D
:103B2000FB73FB7B312B1ED07B681B6893F85C30EA
:103B3000DBB283F00103DBB2002B02D02E23FB7338
:103B400004E07B681B681B7A002BEDD07B681B6848
:103B500000221A72786801F0C5FA7B681B685B6DF9
:103B60001846FEF7CFFE7B681B689B7E1F2B03D099
:103B70007B681B681B7EFB73FB7B18461037BD46BA
:103B800080BD00BF80B58AB000AFF860B9603B600F
:103B90001346FB710023BB6100237B61002387F880
:103BA000273000233B62BB685B7803F03F03DBB246
:103BB000002B06D0BB685B7803F03F03DBB20F2B12
:103BC00003D1002387F8273096E03B68FB61FB6850
:103BD0001B681B681B69BB61BA69BB685B78C3F370
:103BE0000503DBB29BB2F86811461A46FFF75EFF89
:103BF000FB79062B7CD801A252F823F0E93C00089F
:103C0000193C0008313C00085F3C0008B93C000842
:103C1000C93C0008C13C0008BA69FB691A6007F199
:103C200018031846FFF706FF034687F8273063E0BE
:103C3000BA69FB691A6007F118031846FFF7FAFE24
:103C4000034687F8273097F82730002B06D0F8680E
:103C50002C49FFF74FFF034687F827304CE02A4BEB
:103C60001B691A02FB691A60FB690433FB61264B6E
:103C70001B691B0E3B62244B5B691A023B6A1A43A9
:103C8000FB691A60FB690433FB611F4B5B691B0E08
:103C90003B621D4B9B691A023B6A1A43FB691A601F
:103CA000194B9B691B0E3B62174BDB691A023B6A7F
:103CB0001A43FB691A601FE0BA69FB691A601BE0CE
:103CC000BA69FB691A6017E0BB699BB27B6107F1B7
:103CD00014031846FFF7AEFE034687F82730BB698A
:103CE0001A0CFB691A6007E0002387F8273003E00D
:103CF000012387F8273000BF97F827301846283768
:103D0000BD4680BD40420F0000C0014880B586B06E
:103D100000AFF860B9607A60FB700123FB75FB6847
:103D20001B68002283F85120FB681B6801225A7629
:103D3000FB681B6801221A76F868B968FFF772FD04
:103D40000346FB75FB7D1B2B5DD0FB7D1A2B5AD0E8
:103D5000FB681B681B681846B9687A68FDF7C2FFE4
:103D6000F8682B4901F084F90346002B4BD1FB681E
:103D70001B6893F85C30DBB283F00103DBB2002BED
:103D800000D004E0FB681B689B79002BEFD0FB6838
:103D90001B6800229A71F86801F0A4F9FB681B689F
:103DA0005B6D1846FEF7AEFDFB681B685B7E1C2B47
:103DB00009D1FB78F868B9681A463B6AFFF7E2FE5A
:103DC0000346FB751FE0FB681B685B7E022B09D175
:103DD000BB685B7803F03F03DBB2082B02D1022300
:103DE000FB7510E0BB681B7803F02003DBB2002BEF
:103DF00004D0FB681B68012283F85120F86800F0AA
:103E000017FD0346FB75FB7D18461837BD4680BD80
:103E100040420F0080B588B002AF78600123FB7587
:103E20000023BB6000233B610023FB607B681B68B1
:103E300093F85030002B03D14FF48013FB6001E066
:103E4000214BFB6019235B00204A1A4407F1080349
:103E500000937868114600220123FFF757FF0346BD
:103E6000FB75FB7D002B1ED11F235B00174A1A44F4
:103E70007B681B682033009378681146FA68042336
:103E8000FFF744FF0346FB75FB7D002B03D0FB7D52
:103E9000122B00D013E00023FB75786844F62061F4
:103EA00001F036F801E064233B613B695A1C3A613A
:103EB000312B04D87B681B681B6A002BC2DAFB7DA0
:103EC00018461837BD4680BD0000104068FC000849
:103ED00080B586B002AF78600023BB6006235B002C
:103EE0001C4A1A4407F108030093786811464FF4FE
:103EF000D5720623FFF70AFF0346FB73FB7B002BFB
:103F000016D1BB68DBB2AA2B02D01923FB731BE0CE
:103F1000BB681B0ADBB203F00F03012B02D019238D
:103F2000FB7311E07B681B68012283F850200BE0D3
:103F30007B681B685B7E022B06D17B681B680022B6
:103F400083F850200023FB73FB7B18461037BD46D7
:103F500080BD00BF68FC000880B586B002AF786005
:103F600039600023BB6019235B001F4A1A4407F124
:103F700008030093786811463A680123FFF7C6FEEC
:103F80000346FB737B681B6893F85030002B02D10B
:103F9000FB7B122B02D0FB7B002B20D11F235B006D
:103FA000114A1A447B681B682033009378681146D5
:103FB0003A680423FFF7AAFE0346FB73FB7B122B30
:103FC00002D0FB7B002B0AD17868FFF723FF034662
:103FD000FB73FB7B002B02D1786800F0C7F8FB7BFA
:103FE00018461037BD4680BD68FC000880B586B015
:103FF00002AF78600123FB737B681B7A03F0080330
:10400000BB73786800F032F90346FB73FB7B002B2F
:104010000FD10C235B001C4A1A4407F108030093DC
:10402000786811464FF400720123FFF76FFE0346D4
:10403000FB73FB7B002B21D1BB7B002B1ED178684F
:1040400000F0F6FA0346FB73FB7B002B06D07B687F
:104050001B681B6818460021FFF710FB786800F00A
:1040600045FB0346FB73FB7B002B07D07B681B687B
:104070001B681846FFF752FB0023FB73FB7B1846B7
:104080001037BD4680BD00BF68FC000880B586B013
:1040900002AF78600023BB7300235B00324A1A44EE
:1040A000002300937868114600220023FFF72EFEBC
:1040B0000346FB73FB7B002B00D00DE07868FFF715
:1040C00007FF0346FB73BB7B0133BB73BB7B012B39
:1040D00002D8FB7B192BDFD0FB7B002B3ED17B680A
:1040E0001B68B3F84C3078681946FFF735FF034674
:1040F000FB73FB7B002B31D101235B001A4A1A446E
:104100007B681B68243300937868114600220323E0
:10411000FFF7FCFD0346FB73FB7B002B1ED1786889
:1041200000F088F80346FB73FB7B002B16D107F1E8
:104130000D037868194601F0A3FB0346FB73FB7B74
:10414000002B0BD17B7B012B01D12B23FB737B68D5
:104150001B7A23F00303DAB27B681A72FB7B1846E2
:104160001037BD4680BD00BF68FC000880B483B036
:1041700000AF78607B681B6893F85030002B07D144
:104180007B685B7A43F00203DAB27B685A7215E00F
:104190007B681B681B6A03F08043002B07D07B6899
:1041A0005B7A43F00C03DAB27B685A7206E07B68F4
:1041B0005B7A43F00103DAB27B685A720C37BD4672
:1041C0005DF8047B704700BF80B594B000AF7860A5
:1041D00007F1080340221846002107F0D8FE01230A
:1041E00087F84F3007F108037868194601F00CFD95
:1041F000034687F84F3097F84F30002B13D1BB6838
:104200001A0EBB6803F47F031B0C1B021343BB6431
:10421000BB6C9BB2002B06D07B681B7A43F0040377
:10422000DAB27B681A7297F84F3018465037BD469D
:1042300080BD00BF80B586B002AF786002235B000E
:10424000094A1A447B681B684C330093786811460E
:1042500000220523FFF75AFD0346FB73FB7B18463C
:104260001037BD4680BD00BF68FC000880B58AB02D
:1042700002AF78600023BB6100233B610023BB6079
:104280000023FB607B681B7A03F00803FB757B68E7
:104290001B68B3F84C301B04BA691343BB61072396
:1042A0005B003C4A1A447B681B683433009378688F
:1042B0001146BA690323FFF729FD0346FB77FB7F0D
:1042C000002B55D1FB7D002B52D17868FFF77CFF86
:1042D0000346FB77FB7F002B49D17B685B7A03F0B9
:1042E0001003002B43D1786800F0D8FC0346FB771D
:1042F000FB7F002B3BD17B681B68B3F84C301B0461
:10430000BA691343BB6119235B00224A1A4407F1BF
:104310001003009378681146BA690123FFF7F6FC91
:104320000346FB77FB7F002B21D17B681B681B6852
:1043300018460121FFF7C2F921235B00154A1A44F0
:1043400007F10803009301230193786811460022C6
:10435000082300F0DBF80346FB777B681B684433D7
:1043600007F1080292E8030083E803000CE00BE089
:10437000786800F093FC0346FB777B681B681B683A
:1043800018460121FFF79AF9FB7F18462037BD46F2
:1043900080BD00BF68FC000880B58CB002AFF8603B
:1043A000B9607A607B80012387F8273000233B6265
:1043B0007B887B6100233B7700237B77FB681B684E
:1043C0001A6807F1140310461946FDF79FFC07F120
:1043D00020030093F868B9687A680123FFF796FC18
:1043E000034687F8273097F8273018462837BD4608
:1043F00080BD00BF80B58CB002AFF860B9607A6054
:104400003B6000233B62FB685B7A03F00803002BF0
:1044100004D1BB681B685A02BB681A604FF4007372
:104420007B617B68BB6122233B7701237B77FB6841
:104430001B681A6807F1140310461946FDF766FC5D
:10444000FB681B681B6818464FF08071FDF7CAFBBC
:10445000BB681A6807F120030093F86839680123E4
:10446000FFF754FC034687F8273097F827301846A3
:104470002837BD4680BD00BF80B586B000AFF8606C
:10448000B9607A603B60FB681B6801229A76F86825
:10449000B9687A683B68FFF7ADFF0346FB75FB7DA3
:1044A000002B2CD114E097F82430F868396A1A46AA
:1044B000802300F037FC0346FB75FB7D002B00D00A
:1044C00009E07B68013B7B603B6A03F500733B625C
:1044D0007B68002BE7D1FB7D002B10D1F8680A49DF
:1044E000FFF708FB0346FB75FB7D002B07D1FB683C
:1044F0001B68DB7E092B02D1F86800F083FCFB7D92
:1045000018461837BD4680BD40420F0080B586B0C2
:1045100000AFF860B9607A607B807B8803339B08CA
:104520003B617B88F868B9687A68FFF735FF034616
:10453000FB75FB7D002B49D197F82430F868396A68
:104540001A463B6900F0EEFB0346FB75FB7D002B32
:104550003CD1F868204900F08BFD0346FB75FB7DDC
:10456000002B02D02E23FB7530E0FB681B6893F80C
:104570005C30DBB283F00103DBB2002B02D02E23D0
:10458000FB7504E0FB681B681B7A002BEDD0F86814
:1045900000F0A8FDFB681B685B6D1846FEF7B2F9DA
:1045A000FB681B6800221A72FB681B689B7E1F2B2E
:1045B00002D10023FB7509E0FB681B68012283F828
:1045C0005120F86800F034F90346FB75FB7D18466E
:1045D0001837BD4680BD00BF40420F0080B584B093
:1045E00000AF78600B46FB7007F10E037868194640
:1045F00001F046F90346FB73FB7B002B13D1BB7B19
:10460000012B05D1FB78012B02D10023FB730AE0BB
:10461000BB7B002B05D1FB78002B02D10023FB7361
:1046200001E01023FB73FB7B18461037BD4680BDAD
:1046300080B588B002AF786000233B610123FB7531
:104640000023FB60786800F029FB0346FB75FB7DC7
:10465000002B44D17B681B681B6818464021FDF77E
:10466000E1FA7B681B6893F84530C3F30303DBB2C0
:1046700003F00403002B28D07B681B68B3F84C3090
:104680001B043A6913433B6119235B00164A1A4421
:1046900007F10C030093786811463A690123FFF78C
:1046A00035FB0346FB75FB7D002B0ED11B235B0006
:1046B0000D4A1A4407F10C03009378681146022250
:1046C0000123FFF723FB0346FB75FB7D002B06D17F
:1046D0007B681B681B6818460221FEF7CFFFFB7D35
:1046E00018461837BD4680BD68FC000880B596B0F6
:1046F00002AF786007F10C0340221846002107F052
:1047000046FC012387F84F307B681B6893F84430E0
:1047100003F00F03DBB2002B31D0786800F0BEFA53
:10472000034687F84F3097F84F30002B27D10423EA
:104730005B00164A1A4407F10C030093012301930E
:1047400078681146124A4023FFF7E0FE034687F8D7
:104750004F3097F84F30002B07D1FB6903F00F0360
:10476000012B02D0012387F84F3097F84F30002BF0
:1047700005D17B681B681B681846FEF7BBFF97F8DE
:104780004F3018465037BD4680BD00BF68FC00085A
:104790000100008080B584B000AF786039600023EC
:1047A000FB737B681B68012283F85C20786839689A
:1047B00000F05EFC0346FB73FB7B002B21D07B6883
:1047C0001B6893F85C30DBB283F00103DBB2002B93
:1047D00002D02E23FB7314E07B681B689B79012BAE
:1047E0000FD07B681B68DB79012B0AD07B681B68C4
:1047F0001B6818464FF40041FDF74AFA0346002BA8
:10480000DDD1786800F06EFC7B681B685B6D184634
:10481000FEF778F87B681B6800229A717B681B683A
:104820000022DA71FB7B18461037BD4680BD00BF01
:1048300080B586B000AF786009235B00614A1344FD
:104840003B612523FB750023FB600023BB605E4BAF
:10485000BB607B681B681B681846B968FDF7E2F906
:104860007B681B689B8803F00F03002B08D17B68D3
:104870001B681B681846FEF77BFE0346002B05D01D
:1048800078680221FEF75EFF0346FB757B681B68B4
:104890009B8803F07003002B08D17B681B681B68A2
:1048A0001846FEF779FE0346002B05D078680421F0
:1048B000FEF748FF0346FB75444BBB607B681B68F3
:1048C0001B681846B968FDF7CFF97B681B6893F839
:1048D0005130012B48D17B681B681B681846396929
:1048E0000022FDF7FFF978683949FFF753FF0346C7
:1048F000FB75FB7D002B1CD17B681B681B68184671
:10490000FEF75EFD0346002B13D02523FB757B6865
:104910001B681B681846F968FDF7A6F97B681B68D9
:104920001B681846B968FDF79FF978680621FEF7FD
:1049300009FF7B681B681B681846FEF741FD0346AC
:1049400083F00103DBB2002B28D07B681B681B6857
:104950001846FEF735FE0346002B02D02423FB75D4
:104960001CE02523FB7519E07B681B681B68184653
:10497000FEF726FD034683F00103DBB2002B0DD0CA
:104980007B681B681B681846FEF71AFE0346002B5F
:1049900002D02423FB7501E02523FB75BB6843F09F
:1049A0008053BB607B681B681B681846B968FDF7BD
:1049B00019F97B681B68FA7D1A77FB7D1846183752
:1049C000BD4680BD68FC00080000FF100080FF00AD
:1049D00040420F0080B584B000AF78600B467B800A
:1049E0000023FB737B8803F02003002B0ED07B6831
:1049F0001B681E221A767B681B681B6818462021DC
:104A0000FDF732F97B681B680122DA717B8803F0BD
:104A10001003002B0ED07B681B681E221A767B6861
:104A20001B681B6818461021FDF71EF97B681B6880
:104A30000122DA717B8803F00203002B15D07B681A
:104A40001B681F229A767B681B681B681846022128
:104A5000FDF70AF97B681B7A23F02003DAB27B6842
:104A60001A727B681B6801221A727B8803F00103AB
:104A7000002B15D07B681B681C225A767B681B684C
:104A80001B6818460121FDF7EFF87B681B7A23F0BD
:104A90001003DAB27B681A727B681B6801229A7174
:104AA000FB7B18461037BD4680BD00BF80B584B083
:104AB00000AF78600B467B800123FB737B681B682B
:104AC0007A889A807B8803F00103002B16D07B68DC
:104AD0001B6802225A767B681B7A23F01003DAB235
:104AE0007B681A727B681B681B6818464FF480311C
:104AF000FDF7BAF87B681B6801229A717B8803F086
:104B00000203002B16D07B681B6803225A767B6851
:104B10001B7A23F01003DAB27B681A727B681B6879
:104B20001B6818464FF40031FDF79EF87B681B6840
:104B300001229A717B8803F00403002B16D07B6856
:104B40001B6804225A767B681B7A23F01003DAB2C2
:104B50007B681A727B681B681B6818464FF48021BB
:104B6000FDF782F87B681B6801229A717B8803F04D
:104B70000803002B16D07B681B6805225A767B68D9
:104B80001B7A23F01003DAB27B681A727B681B6809
:104B90001B6818464FF40021FDF766F87B681B6818
:104BA00001229A717B8803F01003002B16D07B68DA
:104BB0001B6806221A767B681B7A23F02003DAB280
:104BC0007B681A727B681B681B6818464FF480115B
:104BD000FDF74AF87B681B680122DA717B8803F0D5
:104BE0002003002B16D07B681B6807221A767B688F
:104BF0001B7A23F02003DAB27B681A727B681B6889
:104C00001B6818464FF40011FDF72EF87B681B68EF
:104C10000122DA717B8803F04003002B16D07B68F9
:104C20001B6808221A767B681B7A23F02003DAB20D
:104C30007B681A727B681B681B6818464FF48001FA
:104C4000FDF712F87B681B680122DA717B8803F498
:104C50008073002B1DD07B681B680922DA767B6885
:104C60001B7A23F01003DAB27B681A727B681B7A16
:104C700023F02003DAB27B681A727B681B681B681A
:104C800018464FF08071FCF7EFFF7B681B6801222C
:104C90009A71FB7B18461037BD4680BD80B588B041
:104CA00002AF78600123FB7500233B610023FB60AA
:104CB0007B681B68B3F84C301B043A6913433B61B3
:104CC0000A235B00164A1A4407F10C030093786824
:104CD00011463A690123FFF719F80346FB75FB7D7E
:104CE000002B17D1FB6803F4E8535B0A042B02D1B5
:104CF0000023FB750EE005235B00094A1A4407F107
:104D00000C030093786811463A690223FEF7FEFF10
:104D10000346FB75FB7D18461837BD4680BD00BFB6
:104D200068FC000880B586B000AFF860B9603B60F1
:104D30001346FB710123FB7500233B61F868304982
:104D400000F096F90346FB75FB7D002B53D1FB6801
:104D50001B6893F85C30DBB283F00103DBB2002BFD
:104D600002D02E23FB7504E0FB681B68DB79002B67
:104D7000EDD0F86800F0B6F9FB681B685B6D18466B
:104D8000FDF7C0FDFB681B680022DA71FB681B6839
:104D90001B7E1E2B25D100233B611BE0FB79012BE1
:104DA00008D1FB681B681B681846FEF733FB0246F8
:104DB000BB681A60FB79022B06D1FB681B681B6875
:104DC0001846B968FEF732FBBB680433BB603B6929
:104DD00001333B613A693B689A42DFD30023FB759C
:104DE00009E0FB681B68012283F85120F868FFF78F
:104DF0001FFD0346FB75FB7D18461837BD4680BD79
:104E000040420F0080B588B002AF78600023FB7588
:104E100000233B610023FB607B681B681B6818460E
:104E20000121FEF7DFFA0346002B2CD001233B6162
:104E30007B681B681B7F242B0ED109235B00294A4A
:104E40001A4407F10C0300937868114600220123ED
:104E5000FEF75CFF0346FB75FB7D002B3ED0FB7D20
:104E6000252B3BD078680421FEF76CFC0346FB75CC
:104E7000FB7D002B32D17B681B681B6818468021A4
:104E8000FEF7B0FA2AE078680221FEF75BFC0346E1
:104E9000FB75FB7D002B21D109235B00114A1A44CD
:104EA00007F10C0300937868114600220123FEF7F6
:104EB0002DFF0346FB75FB7D252B0FD07868042161
:104EC000FEF740FC0346FB75FB7D002B06D17B689B
:104ED0001B681B6818468021FEF784FA1837BD4608
:104EE00080BD00BF68FC000880B485B000AF78606A
:104EF0007B68002B06D07B68FB60FB681B68002288
:104F000083F85C201437BD465DF8047B704700BF12
:104F100080B584B000AF786039600023BB602F2378
:104F2000FB737B681B68012283F85C207B681B682D
:104F3000BA685A6538680021184A7B68FDF7CCFBCF
:104F4000B860BB68002B1ED07B681B68BA685A65C6
:104F5000B868FDF75FFC0346FB73FB7B002B10D1A9
:104F600000BF7B681B6893F85C30DBB2002BF8D184
:104F7000B868FDF78FFC0346002B04D10023FB73B8
:104F800001E03123FB73FB7B002B02D1B868FDF7F6
:104F9000B9FCFB7B18461037BD4680BDE94E0008C2
:104FA00080B584B000AF78607868304900F060F870
:104FB0000346FB737B681B685B6D002B51D07B68DD
:104FC0001B6893F85C30DBB283F00103DBB2002B8B
:104FD00002D02E23FB730BE07B681B681B6818460E
:104FE000FEF758FA034683F00103DBB2002BE6D14B
:104FF000786800F077F87B681B685B6D1846FDF7F2
:1050000081FCFB7B2E2B2CD07B681B681B68184611
:10501000FEF766FA7B681B681B681846FEF714FAF1
:105020007B681B6893F85E3083F00103DBB2002BD2
:1050300017D07868FFF72AF80346FB73FB7B002B39
:1050400002D0FB7B2B2B0CD17868FEF7CFFF0346F9
:10505000FB73FB7B002B04D17B681B68012283F868
:105060005E20FB7B18461037BD4680BD40420F00D6
:1050700080B584B000AF786039600023BB60002346
:10508000FB737B681B68012283F85C203868002171
:10509000134A7B68FDF720FBB860BB68012B13D077
:1050A000B868FDF7B7FB0346002B08D0B868FDF7DA
:1050B00029FC7B681B6800225A653123FB737B68DF
:1050C0001B68BA685A6505E07B681B6800225A6550
:1050D0002F23FB73FB7B18461037BD4680BD00BFF6
:1050E000E94E000880B584B000AF78607B681B682B
:1050F0005B6DBB60B868FDF7CDFB0346FB60FB68EA
:10510000002B08D0B868FDF7FDFB3223FB607B68FD
:105110001B6800225A65FB6818461037BD4680BDE3
:1051200080B586B000AFF860B9607A6000233B615B
:1051300007F11003F868194600F090FC0346FB7570
:10514000FB7D002B07D1BA687B681A443B699A4201
:1051500001D93323FB75FB7D18461837BD4680BD4A
:1051600080B588B002AFF860B9607A603B60002318
:105170003B610123FB75FB685B7A03F00803002B9E
:1051800005D1BB685B02BB607B685B027B6015235B
:105190005B00364A1A4407F110030093F868114681
:1051A000BA680123FEF7B2FD0346FB75FB7D002BB9
:1051B0000ED116235B002D4A1A4407F11003009309
:1051C000F86811467A680123FEF7A0FD0346FB75D7
:1051D000FB7D002B45D117235B00244A1A4407F1BD
:1051E00010030093F868114600220223FEF78EFD9B
:1051F0000346FB753B681E4A02FB03F3F868194639
:10520000FFF736FF0346FB75FB681B685B6D002BE1
:1052100027D0FB681B6893F85C30DBB283F0010396
:10522000DBB2002B02D02E23FB7511E0FB681B685C
:105230001B681846FEF7B0F90346002BE9D1FB685E
:105240001B681B681846FEF793F90346002BE0D154
:10525000F868FFF747FFFB681B685B6D1846FDF7B2
:1052600051FBFB7D18461837BD4680BD68FC000821
:1052700040420F0080B584B000AF78602C23FB73F0
:105280007B681B7A03F04003002B50D17868012122
:10529000FEF758FA0346FB73FB7B002B47D17B6874
:1052A0001B681B681846FEF709F97B681B681B68BA
:1052B00018460121FEF798F97B681B681B681846A1
:1052C000FEF7D6F87B681B681B68F3229A867B681A
:1052D0001B681B684EF2FF02DA867B681B681B683E
:1052E00033221A877B681B681B684EF2FF025A87BD
:1052F0007B681B681B6818460E21FEF7A7F97B68C0
:105300001B681B6818460721FEF786F97B681B7A25
:1053100043F04303DAB27B681A720023BB6002E0F9
:10532000BB680133BB60BB68034A9342F8D9FB7B7F
:1053300018461037BD4680BD9F86010080B584B0F9
:1053400000AF78600123FB737B681B7A03F0400396
:10535000002B08D07868FEF735FA78680121FEF74F
:10536000F1F90346FB73FB7B18461037BD4680BD41
:1053700090B589B002AFF860B9607A603B602A23CB
:10538000FB75FB681B6801225A76FB681B680122CB
:105390001A76FB681B6801229A76FB681B6893F8F3
:1053A0005E30002B22D07B68F86819463A68FFF718
:1053B000B7FE0346FB75FB7D002B17D1FB681B680E
:1053C0001B6818460121FEF779F90E235B000A4A93
:1053D0009C183A1DBB68009301230193F86811469D
:1053E0003A682346FFF748F80346FB75FB7D1846ED
:1053F0001C37BD4690BD00BF68FC000880B588B072
:1054000002AFF860B9607A602A23FB7501233B6123
:10541000FB681B6893F85E30002B2AD0F868796827
:105420003A69FFF77DFE0346FB75FB7D002B20D11B
:10543000FB685B7A03F00803002B02D17B685B02F8
:105440007B60FB681B681B6818460121FEF736F974
:105450000D235B00094A1A44BB68009301230193A2
:10546000F86811467A684FF40073FFF74FF8034667
:10547000FB75FB7D18461837BD4680BD68FC0008EB
:1054800090B589B002AFF860B9607A603B602A23BA
:10549000FB75FB681B6801225A76FB681B680122BA
:1054A0001A76FB681B6801229A76FB681B6893F8E2
:1054B0005E30002B22D07B68F86819463A68FFF707
:1054C0002FFE0346FB75FB7D002B17D1FB681B6885
:1054D0001B6818460021FEF7F1F810235B000A4A0A
:1054E0009C183A1DBB68009302230193F86811468B
:1054F0003A682346FEF7C0FF0346FB75FB7D18465E
:105500001C37BD4690BD00BF68FC000880B588B060
:1055100002AFF860B9607A602A23FB7501233B6112
:10552000FB681B6893F85E30002B2AD0F868796816
:105530003A69FFF7F5FD0346FB75FB7D002B20D193
:10554000FB685B7A03F00803002B02D17B685B02E7
:105550007B60FB681B681B6818460021FEF7AEF8ED
:105560000F235B00094A1A44BB680093022301938E
:10557000F86811467A684FF40073FEF7C7FF0346D8
:10558000FB75FB7D18461837BD4680BD68FC0008DA
:10559000B0B5A6B000AFF860B9607A602A2387F88A
:1055A00097300023C7F88C30724B07F150041D462A
:1055B0000FCD0FC40FCD0FC495E8030084E803009E
:1055C0000023A7F88A30002387F88930002387F862
:1055D0008830002387F887300023C7F88030002305
:1055E000FB6707F1100340221846002106F0CFFCAC
:1055F0000023BB67FB681B6801225A76FB681B68A7
:1056000001221A76FB681B6801229A76FB681B7AD6
:1056100003F00403002B03D00F2387F8973090E0AA
:10562000BB68C7F890307A68D7F89030D31A013346
:10563000C7F88C30F868D7F89010D7F88C20FFF7AF
:105640006FFD034687F8973097F89730002B78D195
:1056500007F11003F868194600F0D6FA034687F8F8
:10566000973097F89730002B6BD1FB6903F44073A8
:105670001B0A87F88930FB6903F47C439B0A87F88F
:105680008830BB691B0E9BB21B029AB2FB699BB2AE
:10569000DBB29BB21343A7F88A30BB6903F47003F3
:1056A0001B0D87F8873097F88820B7F88A30B2FB4F
:1056B000F3F297F889301344BB6797F887309B0063
:1056C00007F19802134453F8483CC7F88030B7F804
:1056D0008A30D7F8802002FB03F3FB671EE0D7F87F
:1056E0009020FB6F1344F868D7F890101A46BB6FF0
:1056F000FFF736FD034687F8973097F89730002B71
:1057000000D010E0D7F89020FB6F1344C7F890301A
:10571000D7F88C20FB6FD31AC7F88C30D7F88C20C1
:10572000FB6F9A42DBD2D7F88C30002B09D0F86897
:10573000D7F890107A68BB6FFFF712FD034687F821
:10574000973000BFFB681B681B681846FDF724FFF5
:105750000346002BF6D1FB681B681B681846FDF753
:1057600007FF0346002BEDD197F89730184698377E
:10577000BD46B0BDB8FC000890B58BB002AFF86074
:10578000B9601346FB710123FB770023BB61F86806
:10579000FFF784FA0346FB77FB7F002B68D1FB6899
:1057A0001B681B6818460021FDF788FFBB685B7803
:1057B000013323F001030233BB610C235B002F4A4A
:1057C0001A4407F114030093F8681146BA690123DB
:1057D000FEF79CFA0346FB77FB7F002B48D118238A
:1057E0005B00264A1A44BB699CB2BB680093022343
:1057F0000193F868114600222346FEF787FE034610
:10580000FB7700BFFB681B681B681846FDF7C4FEEA
:105810000346002BF6D10C235B00184A1A4407F10B
:1058200014030093F86811464FF400720123FEF749
:105830006DFA0346FB7700BFFB681B681B681846C0
:10584000FDF7AAFE0346002BF6D1FB681B681B6818
:105850001846FDF78DFE0346002BEDD1FB7F002B94
:1058600006D1FB79F8681946FEF7B8FE0346FB77C8
:10587000FB7F18462437BD4690BD00BF68FC00087A
:1058800080B588B002AF786039600023FB600023E8
:105890007B610123FB747B681B68B3F84C301B04ED
:1058A0007A6913437B610A235B00174A1A4407F1A4
:1058B0000C030093786811467A690123FEF726FAF3
:1058C0000346FB74FB7C002B19D1FB6803F00073CB
:1058D000002B0AD03B6801221A707B681B7A43F0C8
:1058E0000803DAB27B681A7209E03B6800221A707A
:1058F0007B681B7A23F00803DAB27B681A72FB7CA0
:1059000018461837BD4680BD68FC000880B483B0D7
:1059100000AF78607B681B7A03F00F03DBB2184698
:105920000C37BD465DF8047B704700BF80B483B080
:1059300000AF786039607B685B7A1A463B681A6012
:10594000002318460C37BD465DF8047B704700BF46
:1059500080B485B000AF786039603B68FB607B68DD
:105960001B685B6A9BB2C3F30B039AB2FB681A8095
:105970007B681B689B6A1A047B681B685B6A1B0C4C
:105980001A43FB685A607B681B689B6A1B0CDAB27F
:10599000FB681A727B681B68DB6A1B0EDAB2FB6855
:1059A0005A727B681B68DB6A1B0CDAB2FB689A725E
:1059B0007B681B68DB6A1B0ADAB2FB68DA727B68F9
:1059C0001B68DB6ADAB2FB681A737B681B689B6A28
:1059D0001B0EDAB2FB685A737B681B681B6B1B0AD1
:1059E000DAB2FB689A737B681B681B6BDAB2FB68E0
:1059F000DA737B681B681B6B1B0CDAB2FB681A74CA
:105A0000002318461437BD465DF8047B704700BF7D
:105A100080B483B000AF786039607B681B681A6A15
:105A20003B681A60002318460C37BD465DF8047BBE
:105A3000704700BF80B582B000AF786039603B68C6
:105A40005A1C7B681B683433104619460F2206F037
:105A500093FA002318460837BD4680BD80B58EB046
:105A600000AF78603960002387F8373000233B634C
:105A70007B685B7A03F00403002B26D007F11C033C
:105A800000221A60043300221A60043300221A60D4
:105A9000043300221A60043300221A60043307F131
:105AA0001C0378681946FFF7C5FF034687F83730AF
:105AB00097F83730002B07D17B6AC3F31503013306
:105AC0009A023B681A6031E030E007F108030022D7
:105AD0001A60043300221A60043300221A6004336F
